{
  "_format": "hh-sol-artifact-1",
  "contractName": "DataFeedDAO",
  "sourceName": "contracts/DataFeedDAO.sol",
  "abi": [
    {
      "inputs": [
        {
          "internalType": "contract Reclaim",
          "name": "_reclaimSDK",
          "type": "address"
        }
      ],
      "stateMutability": "nonpayable",
      "type": "constructor"
    },
    {
      "inputs": [],
      "name": "ReentrancyGuardReentrantCall",
      "type": "error"
    },
    {
      "anonymous": false,
      "inputs": [
        {
          "indexed": false,
          "internalType": "address",
          "name": "depositer",
          "type": "address"
        },
        {
          "indexed": false,
          "internalType": "string",
          "name": "apiUrl",
          "type": "string"
        },
        {
          "indexed": false,
          "internalType": "uint256",
          "name": "value",
          "type": "uint256"
        }
      ],
      "name": "Funded",
      "type": "event"
    },
    {
      "anonymous": false,
      "inputs": [
        {
          "indexed": false,
          "internalType": "address",
          "name": "registrar",
          "type": "address"
        },
        {
          "indexed": false,
          "internalType": "string",
          "name": "name",
          "type": "string"
        },
        {
          "indexed": false,
          "internalType": "string",
          "name": "description",
          "type": "string"
        },
        {
          "indexed": false,
          "internalType": "string",
          "name": "url",
          "type": "string"
        },
        {
          "indexed": false,
          "internalType": "uint256",
          "name": "coolDown",
          "type": "uint256"
        },
        {
          "indexed": false,
          "internalType": "uint256",
          "name": "reward",
          "type": "uint256"
        },
        {
          "indexed": false,
          "internalType": "uint256",
          "name": "freshnessWindow",
          "type": "uint256"
        }
      ],
      "name": "Registered",
      "type": "event"
    },
    {
      "anonymous": false,
      "inputs": [
        {
          "indexed": false,
          "internalType": "address",
          "name": "submitter",
          "type": "address"
        },
        {
          "indexed": false,
          "internalType": "string",
          "name": "apiUrl",
          "type": "string"
        },
        {
          "indexed": false,
          "internalType": "string",
          "name": "data",
          "type": "string"
        }
      ],
      "name": "Submitted",
      "type": "event"
    },
    {
      "anonymous": false,
      "inputs": [
        {
          "indexed": false,
          "internalType": "address",
          "name": "withdrawer",
          "type": "address"
        },
        {
          "indexed": false,
          "internalType": "string",
          "name": "apiUrl",
          "type": "string"
        },
        {
          "indexed": false,
          "internalType": "uint256",
          "name": "value",
          "type": "uint256"
        }
      ],
      "name": "Withdrawn",
      "type": "event"
    },
    {
      "inputs": [
        {
          "internalType": "string",
          "name": "url",
          "type": "string"
        }
      ],
      "name": "depositFund",
      "outputs": [],
      "stateMutability": "payable",
      "type": "function"
    },
    {
      "inputs": [
        {
          "internalType": "string",
          "name": "url",
          "type": "string"
        },
        {
          "internalType": "uint256",
          "name": "tickOffset",
          "type": "uint256"
        }
      ],
      "name": "getAPIData",
      "outputs": [
        {
          "internalType": "string",
          "name": "",
          "type": "string"
        }
      ],
      "stateMutability": "view",
      "type": "function"
    },
    {
      "inputs": [
        {
          "internalType": "string",
          "name": "url",
          "type": "string"
        }
      ],
      "name": "getAPIInfo",
      "outputs": [
        {
          "internalType": "string",
          "name": "",
          "type": "string"
        },
        {
          "internalType": "string",
          "name": "",
          "type": "string"
        },
        {
          "internalType": "uint256",
          "name": "",
          "type": "uint256"
        },
        {
          "internalType": "uint256",
          "name": "",
          "type": "uint256"
        },
        {
          "internalType": "uint256",
          "name": "",
          "type": "uint256"
        },
        {
          "internalType": "uint256",
          "name": "",
          "type": "uint256"
        },
        {
          "internalType": "uint256",
          "name": "",
          "type": "uint256"
        },
        {
          "internalType": "address",
          "name": "",
          "type": "address"
        },
        {
          "internalType": "uint256",
          "name": "",
          "type": "uint256"
        }
      ],
      "stateMutability": "view",
      "type": "function"
    },
    {
      "inputs": [],
      "name": "getAPIListLength",
      "outputs": [
        {
          "internalType": "uint256",
          "name": "",
          "type": "uint256"
        }
      ],
      "stateMutability": "view",
      "type": "function"
    },
    {
      "inputs": [
        {
          "internalType": "uint256",
          "name": "id",
          "type": "uint256"
        }
      ],
      "name": "getAPIUrlfromID",
      "outputs": [
        {
          "internalType": "string",
          "name": "",
          "type": "string"
        }
      ],
      "stateMutability": "view",
      "type": "function"
    },
    {
      "inputs": [
        {
          "internalType": "string",
          "name": "apiURL",
          "type": "string"
        }
      ],
      "name": "getDepositedFund",
      "outputs": [
        {
          "internalType": "uint256",
          "name": "",
          "type": "uint256"
        }
      ],
      "stateMutability": "view",
      "type": "function"
    },
    {
      "inputs": [],
      "name": "reclaimSDK",
      "outputs": [
        {
          "internalType": "contract Reclaim",
          "name": "",
          "type": "address"
        }
      ],
      "stateMutability": "view",
      "type": "function"
    },
    {
      "inputs": [
        {
          "internalType": "string",
          "name": "name",
          "type": "string"
        },
        {
          "internalType": "string",
          "name": "description",
          "type": "string"
        },
        {
          "internalType": "string",
          "name": "url",
          "type": "string"
        },
        {
          "internalType": "uint256",
          "name": "updateCoolDown",
          "type": "uint256"
        },
        {
          "internalType": "uint256",
          "name": "submissionReward",
          "type": "uint256"
        },
        {
          "internalType": "uint256",
          "name": "dataFreshnessWindow",
          "type": "uint256"
        }
      ],
      "name": "registerAPI",
      "outputs": [],
      "stateMutability": "nonpayable",
      "type": "function"
    },
    {
      "inputs": [
        {
          "internalType": "uint256",
          "name": "id",
          "type": "uint256"
        }
      ],
      "name": "removeAPI",
      "outputs": [],
      "stateMutability": "nonpayable",
      "type": "function"
    },
    {
      "inputs": [
        {
          "internalType": "string",
          "name": "url",
          "type": "string"
        },
        {
          "internalType": "string",
          "name": "data",
          "type": "string"
        },
        {
          "components": [
            {
              "components": [
                {
                  "internalType": "string",
                  "name": "provider",
                  "type": "string"
                },
                {
                  "internalType": "string",
                  "name": "parameters",
                  "type": "string"
                },
                {
                  "internalType": "string",
                  "name": "context",
                  "type": "string"
                }
              ],
              "internalType": "struct Claims.ClaimInfo",
              "name": "claimInfo",
              "type": "tuple"
            },
            {
              "components": [
                {
                  "components": [
                    {
                      "internalType": "bytes32",
                      "name": "identifier",
                      "type": "bytes32"
                    },
                    {
                      "internalType": "address",
                      "name": "owner",
                      "type": "address"
                    },
                    {
                      "internalType": "uint32",
                      "name": "timestampS",
                      "type": "uint32"
                    },
                    {
                      "internalType": "uint32",
                      "name": "epoch",
                      "type": "uint32"
                    }
                  ],
                  "internalType": "struct Claims.CompleteClaimData",
                  "name": "claim",
                  "type": "tuple"
                },
                {
                  "internalType": "bytes[]",
                  "name": "signatures",
                  "type": "bytes[]"
                }
              ],
              "internalType": "struct Claims.SignedClaim",
              "name": "signedClaim",
              "type": "tuple"
            }
          ],
          "internalType": "struct Reclaim.Proof",
          "name": "proof",
          "type": "tuple"
        }
      ],
      "name": "submitData",
      "outputs": [],
      "stateMutability": "nonpayable",
      "type": "function"
    },
    {
      "inputs": [
        {
          "internalType": "string",
          "name": "url",
          "type": "string"
        },
        {
          "internalType": "uint256",
          "name": "value",
          "type": "uint256"
        }
      ],
      "name": "withdrawFund",
      "outputs": [],
      "stateMutability": "nonpayable",
      "type": "function"
    }
  ],
  "bytecode": "0x608060405234801561001057600080fd5b506040516200224f3803806200224f8339810160408190526100319161005b565b6001600081905580546001600160a01b0319166001600160a01b039290921691909117905561008b565b60006020828403121561006d57600080fd5b81516001600160a01b038116811461008457600080fd5b9392505050565b6121b4806200009b6000396000f3fe6080604052600436106100ac5760003560e01c80638eebd30b11610074578063e84943061161004e578063e8494306146101de578063f8e01329146101fe578063ff0497721461023357600080fd5b80638eebd30b1461017e578063a27f21f91461019e578063c2c4011e146101be57600080fd5b806320cfd690146100b15780632eca590c146100c657806339c0f252146100f95780634a44fe4c146101265780637dc8a02814610146575b600080fd5b6100c46100bf36600461177d565b610248565b005b3480156100d257600080fd5b506100e66100e136600461177d565b610330565b6040519081526020015b60405180910390f35b34801561010557600080fd5b506101196101143660046117ba565b610358565b6040516100f09190611823565b34801561013257600080fd5b506100c46101413660046117ba565b610446565b34801561015257600080fd5b50600154610166906001600160a01b031681565b6040516001600160a01b0390911681526020016100f0565b34801561018a57600080fd5b506100c4610199366004611836565b61067f565b3480156101aa57600080fd5b506101196101b93660046118da565b61097d565b3480156101ca57600080fd5b506100c46101d93660046118da565b610af0565b3480156101ea57600080fd5b506100c46101f9366004611a99565b610cd3565b34801561020a57600080fd5b5061021e61021936600461177d565b61110f565b6040516100f099989796959493929190611be9565b34801561023f57600080fd5b506002546100e6565b6003816040516102589190611c53565b9081526020016040518091039020600101805461027490611c6f565b90506000036102be5760405162461bcd60e51b815260206004820152601160248201527010541248191bd95cdb89dd08195e1a5cdd607a1b60448201526064015b60405180910390fd5b346004826040516102cf9190611c53565b908152602001604051809103902060008282546102ec9190611cbf565b90915550506040517fdfa6994609259e6bd6b9688065fbb398e795c7ea01635ffb9b45c4e656b31a889061032590339084903490611cd2565b60405180910390a150565b60006004826040516103429190611c53565b9081526020016040518091039020549050919050565b60025460609082106103995760405162461bcd60e51b815260206004820152600a602482015269125b9d985b1a59081a5960b21b60448201526064016102b5565b600282815481106103ac576103ac611d04565b9060005260206000200180546103c190611c6f565b80601f01602080910402602001604051908101604052809291908181526020018280546103ed90611c6f565b801561043a5780601f1061040f5761010080835404028352916020019161043a565b820191906000526020600020905b81548152906001019060200180831161041d57829003601f168201915b50505050509050919050565b60006002828154811061045b5761045b611d04565b90600052602060002001805461047090611c6f565b80601f016020809104026020016040519081016040528092919081815260200182805461049c90611c6f565b80156104e95780601f106104be576101008083540402835291602001916104e9565b820191906000526020600020905b8154815290600101906020018083116104cc57829003601f168201915b505050505090506003816040516105009190611c53565b9081526020016040518091039020600101805461051c90611c6f565b90506000036105615760405162461bcd60e51b815260206004820152601160248201527010541248191bd95cdb89dd08195e1a5cdd607a1b60448201526064016102b5565b610589816004836040516105759190611c53565b908152602001604051809103902054610af0565b6003816040516105999190611c53565b90815260405190819003602001902080546001600160a01b031916815560006105c560018301826115f2565b6105d36002830160006115f2565b506000600382018190556004820181905560058201819055600682018190556007909101556002805461060890600190611d1a565b8154811061061857610618611d04565b906000526020600020016002838154811061063557610635611d04565b90600052602060002001908161064b9190611d7d565b50600280548061065d5761065d611e5e565b60019003818190600052602060002001600061067991906115f2565b90555050565b60038460405161068f9190611c53565b908152602001604051809103902060010180546106ab90611c6f565b1590506106fa5760405162461bcd60e51b815260206004820152601260248201527f41504920616c726561647920657869737473000000000000000000000000000060448201526064016102b5565b835160000361073a5760405162461bcd60e51b815260206004820152600c60248201526b55524c20697320656d70747960a01b60448201526064016102b5565b835160000361078b5760405162461bcd60e51b815260206004820152601360248201527f4e616d65206669656c6420697320656d7074790000000000000000000000000060448201526064016102b5565b826000036107e75760405162461bcd60e51b8152602060048201526024808201527f436f6f6c646f776e2073686f756c642062652067726561746572207468616e206044820152637a65726f60e01b60648201526084016102b5565b336003856040516107f89190611c53565b90815260405190819003602001812080546001600160a01b03939093166001600160a01b0319909316929092179091558690600390610838908790611c53565b908152602001604051809103902060010190816108559190611e74565b50846003856040516108679190611c53565b908152602001604051809103902060020190816108849190611e74565b50826003856040516108969190611c53565b908152602001604051809103902060040181905550816003856040516108bc9190611c53565b908152602001604051809103902060050181905550806003856040516108e29190611c53565b90815260405190819003602001902060060155600280546001810182556000919091527f405787fa12a823e0f2b7631cc41b3ba8828b3321ca811111fa75cd3aa3bb5ace016109318582611e74565b507f0dbe123ae3b89055ee016a3a221520bc6832863ea3e6a36a828a65a46a272e393387878787878760405161096d9796959493929190611f2e565b60405180910390a1505050505050565b606060016003846040516109919190611c53565b90815260200160405180910390206003015410156109f15760405162461bcd60e51b815260206004820152601260248201527f4461746120646f65736e2774206578697374000000000000000000000000000060448201526064016102b5565b600383604051610a019190611c53565b90815260200160405180910390206008016000600184600387604051610a279190611c53565b908152602001604051809103902060030154610a439190611d1a565b610a4d9190611d1a565b81526020019081526020016000206000018054610a6990611c6f565b80601f0160208091040260200160405190810160405280929190818152602001828054610a9590611c6f565b8015610ae25780601f10610ab757610100808354040283529160200191610ae2565b820191906000526020600020905b815481529060010190602001808311610ac557829003601f168201915b505050505090505b92915050565b610af8611315565b600382604051610b089190611c53565b90815260405190819003602001902054336001600160a01b0390911614610b605760405162461bcd60e51b815260206004820152600c60248201526b24b73b30b634b2103ab9b2b960a11b60448201526064016102b5565b600482604051610b709190611c53565b908152602001604051809103902054811115610bbe5760405162461bcd60e51b815260206004820152600d60248201526c496e76616c69642076616c756560981b60448201526064016102b5565b80600483604051610bcf9190611c53565b90815260200160405180910390206000828254610bec9190611d1a565b9091555050604051600090339083908381818185875af1925050503d8060008114610c33576040519150601f19603f3d011682016040523d82523d6000602084013e610c38565b606091505b5050905080610c895760405162461bcd60e51b815260206004820152600f60248201527f5472616e73666572206661696c6564000000000000000000000000000000000060448201526064016102b5565b7f18af30a54a1951aeee806c16cdcb8d087ed1a095f0d9a87261b92cef2c6cc92d338484604051610cbc93929190611cd2565b60405180910390a150610ccf6001600055565b5050565b610cdb611315565b6000600384604051610ced9190611c53565b90815260200160405180910390209050600384604051610d0d9190611c53565b90815260200160405180910390206001018054610d2990611c6f565b9050600003610d6e5760405162461bcd60e51b815260206004820152601160248201527010541248191bd95cdb89dd08195e1a5cdd607a1b60448201526064016102b5565b6006810154610d7d9042611d1a565b6020830151516040015163ffffffff1611610de45760405162461bcd60e51b815260206004820152602160248201527f4f7574646174656420646174612063616e6e6f74206265207375626d697474656044820152601960fa1b60648201526084016102b5565b8060050154471015610e435760405162461bcd60e51b815260206004820152602260248201527f42616c616e6365206e6f7420656e6f75676820696e2074686520636f6e74726160448201526118dd60f21b60648201526084016102b5565b600381015415610ed35742816004015482600801600060018560030154610e6a9190611d1a565b815260200190815260200160002060020154610e869190611cbf565b10610ed35760405162461bcd60e51b815260206004820152601c60248201527f546f6f206561726c7920746f207375626d6974206e657720646174610000000060448201526064016102b5565b8151602001516001546040516354b0734f60e11b81526001600160a01b039091169063a960e69e90610f09908690600401611f96565b60006040518083038186803b158015610f2157600080fd5b505afa158015610f35573d6000803e3d6000fd5b50505050610f4481868661133f565b600382015460009081526008830160205260409020610f638582611e74565b5060038201805460009081526008840160205260408082204260029091015582548252812060010180546001600160a01b0319163317905581549190610fa8836120ad565b9190505550600585604051610fbd9190611c53565b908152604080516020928190038301902033600090815292528120549003610ff757600782018054906000610ff1836120ad565b91905055505b6005856040516110079190611c53565b90815260408051602092819003830190203360009081529252812080549161102e836120ad565b919050555081600501546004866040516110489190611c53565b908152602001604051809103902060008282546110659190611d1a565b9091555050600582015460405160009133918381818185875af1925050503d80600081146110af576040519150601f19603f3d011682016040523d82523d6000602084013e6110b4565b606091505b50509050806110c257600080fd5b7fcad2461433773bf8b80c4b814c099035ff6d793898de2b342566b2ed27e554e23387876040516110f5939291906120c6565b60405180910390a150505061110a6001600055565b505050565b60608060008060008060008060008060038b60405161112e9190611c53565b908152602001604051809103902090506000806000836003015411156111b857826008016000600185600301546111659190611d1a565b815260200190815260200160002060010160009054906101000a90046001600160a01b03169150826008016000600185600301546111a39190611d1a565b81526020019081526020016000206002015490505b82600101836002018460040154856005015486600601548760030154886007015488888880546111e790611c6f565b80601f016020809104026020016040519081016040528092919081815260200182805461121390611c6f565b80156112605780601f1061123557610100808354040283529160200191611260565b820191906000526020600020905b81548152906001019060200180831161124357829003601f168201915b5050505050985087805461127390611c6f565b80601f016020809104026020016040519081016040528092919081815260200182805461129f90611c6f565b80156112ec5780601f106112c1576101008083540402835291602001916112ec565b820191906000526020600020905b8154815290600101906020018083116112cf57829003601f168201915b505050505097509b509b509b509b509b509b509b509b509b505050509193959799909294969850565b60026000540361133857604051633ee5aeb560e01b815260040160405180910390fd5b6002600055565b61136a826040516020016113539190612104565b60408051601f198184030181529190528490611453565b196113a55760405162461bcd60e51b815260206004820152600b60248201526a125b9d985b1a590815549360aa1b60448201526064016102b5565b60006113db60405180604001604052806009815260200168113b30b63ab2911d1160b91b8152508561145390919063ffffffff16565b6113e690600961213f565b90508180519060200120611409828451846114019190611cbf565b879190611517565b805190602001201461144d5760405162461bcd60e51b815260206004820152600d60248201526c088c2e8c240dad2e6dac2e8c6d609b1b60448201526064016102b5565b50505050565b8151815160009184918491908461146a8284611d1a565b90505b801561150857600160005b838110156114e15785818151811061149257611492611d04565b01602001516001600160f81b031916876114ac8386611cbf565b815181106114bc576114bc611d04565b01602001516001600160f81b031916146114d957600091506114e1565b600101611478565b5080156114f557509450610aea9350505050565b508061150081612167565b91505061146d565b50600019979650505050505050565b60608360006115268585611d1a565b67ffffffffffffffff81111561153e5761153e611648565b6040519080825280601f01601f191660200182016040528015611568576020820181803683370190505b509050845b848110156115e85782818151811061158757611587611d04565b01602001516001600160f81b031916826115a18884611d1a565b815181106115b1576115b1611d04565b60200101907effffffffffffffffffffffffffffffffffffffffffffffffffffffffffffff1916908160001a90535060010161156d565b5095945050505050565b5080546115fe90611c6f565b6000825580601f1061160e575050565b601f01602090049060005260206000209081019061162c919061162f565b50565b5b808211156116445760008155600101611630565b5090565b634e487b7160e01b600052604160045260246000fd5b6040805190810167ffffffffffffffff8111828210171561168157611681611648565b60405290565b6040516080810167ffffffffffffffff8111828210171561168157611681611648565b6040516060810167ffffffffffffffff8111828210171561168157611681611648565b604051601f8201601f1916810167ffffffffffffffff811182821017156116f6576116f6611648565b604052919050565b600067ffffffffffffffff83111561171857611718611648565b61172b601f8401601f19166020016116cd565b905082815283838301111561173f57600080fd5b828260208301376000602084830101529392505050565b600082601f83011261176757600080fd5b611776838335602085016116fe565b9392505050565b60006020828403121561178f57600080fd5b813567ffffffffffffffff8111156117a657600080fd5b6117b284828501611756565b949350505050565b6000602082840312156117cc57600080fd5b5035919050565b60005b838110156117ee5781810151838201526020016117d6565b50506000910152565b6000815180845261180f8160208601602086016117d3565b601f01601f19169290920160200192915050565b60208152600061177660208301846117f7565b60008060008060008060c0878903121561184f57600080fd5b863567ffffffffffffffff8082111561186757600080fd5b6118738a838b01611756565b9750602089013591508082111561188957600080fd5b6118958a838b01611756565b965060408901359150808211156118ab57600080fd5b506118b889828a01611756565b945050606087013592506080870135915060a087013590509295509295509295565b600080604083850312156118ed57600080fd5b823567ffffffffffffffff81111561190457600080fd5b61191085828601611756565b95602094909401359450505050565b803563ffffffff8116811461193357600080fd5b919050565b600082601f83011261194957600080fd5b8135602067ffffffffffffffff8083111561196657611966611648565b8260051b6119758382016116cd565b938452858101830193838101908886111561198f57600080fd5b84880192505b858310156119e0578235848111156119ad5760008081fd5b8801603f81018a136119bf5760008081fd5b6119d08a87830135604084016116fe565b8352509184019190840190611995565b98975050505050505050565b600081830360a08112156119ff57600080fd5b611a0761165e565b91506080811215611a1757600080fd5b50611a20611687565b8235815260208301356001600160a01b0381168114611a3e57600080fd5b6020820152611a4f6040840161191f565b6040820152611a606060840161191f565b60608201528152608082013567ffffffffffffffff811115611a8157600080fd5b611a8d84828501611938565b60208301525092915050565b600080600060608486031215611aae57600080fd5b833567ffffffffffffffff80821115611ac657600080fd5b611ad287838801611756565b94506020860135915080821115611ae857600080fd5b611af487838801611756565b93506040860135915080821115611b0a57600080fd5b9085019060408288031215611b1e57600080fd5b611b2661165e565b823582811115611b3557600080fd5b83016060818a031215611b4757600080fd5b611b4f6116aa565b813584811115611b5e57600080fd5b611b6a8b828501611756565b825250602082013584811115611b7f57600080fd5b611b8b8b828501611756565b602083015250604082013584811115611ba357600080fd5b611baf8b828501611756565b604083015250825250602083013582811115611bca57600080fd5b611bd6898286016119ec565b6020830152508093505050509250925092565b6000610120808352611bfd8184018d6117f7565b90508281036020840152611c11818c6117f7565b604084019a909a5250506060810196909652608086019490945260a085019290925260c08401526001600160a01b031660e08301526101009091015292915050565b60008251611c658184602087016117d3565b9190910192915050565b600181811c90821680611c8357607f821691505b602082108103611ca357634e487b7160e01b600052602260045260246000fd5b50919050565b634e487b7160e01b600052601160045260246000fd5b80820180821115610aea57610aea611ca9565b6001600160a01b0384168152606060208201526000611cf460608301856117f7565b9050826040830152949350505050565b634e487b7160e01b600052603260045260246000fd5b81810381811115610aea57610aea611ca9565b601f82111561110a576000816000526020600020601f850160051c81016020861015611d565750805b601f850160051c820191505b81811015611d7557828155600101611d62565b505050505050565b818103611d88575050565b611d928254611c6f565b67ffffffffffffffff811115611daa57611daa611648565b611dbe81611db88454611c6f565b84611d2d565b6000601f821160018114611df25760008315611dda5750848201545b600019600385901b1c1916600184901b178455611e57565b600085815260209020601f19841690600086815260209020845b83811015611e2c5782860154825560019586019590910190602001611e0c565b5085831015611e4a5781850154600019600388901b60f8161c191681555b50505060018360011b0184555b5050505050565b634e487b7160e01b600052603160045260246000fd5b815167ffffffffffffffff811115611e8e57611e8e611648565b611e9c81611db88454611c6f565b602080601f831160018114611ed15760008415611eb95750858301515b600019600386901b1c1916600185901b178555611d75565b600085815260208120601f198616915b82811015611f0057888601518255948401946001909101908401611ee1565b5085821015611f1e5787850151600019600388901b60f8161c191681555b5050505050600190811b01905550565b6001600160a01b038816815260e060208201526000611f5060e08301896117f7565b8281036040840152611f6281896117f7565b90508281036060840152611f7681886117f7565b6080840196909652505060a081019290925260c090910152949350505050565b6000602080835283516040828501528051606080860152611fba60c08601826117f7565b905082820151605f1980878403016080880152611fd783836117f7565b925060408401519350808784030160a08801525050611ff681836117f7565b91505081850151601f1985830301604086015260a082018151805184526001600160a01b03858201511685850152604081015163ffffffff808216604087015280606084015116606087015250505083820151915060a0608084015280825180835260c08501915060c08160051b8601019250858401935060005b8181101561209f5760bf1986850301835261208d8486516117f7565b94870194935091860191600101612071565b509198975050505050505050565b6000600182016120bf576120bf611ca9565b5060010190565b6001600160a01b03841681526060602082015260006120e860608301856117f7565b82810360408401526120fa81856117f7565b9695505050505050565b66113ab936111d1160c91b815281516000906121278160078501602087016117d3565b601160f91b6007939091019283015250600801919050565b808201828112600083128015821682158216171561215f5761215f611ca9565b505092915050565b60008161217657612176611ca9565b50600019019056fea26469706673582212202da6c58e82f2f6b6c17122517dc6526f18f26f2907d45662e1d3f877849baa3e64736f6c63430008180033",
  "linkReferences": {},
  "deployedLinkReferences": {}
}